{
    "contractName": "Counter",
    "abi": [
        {
            "anonymous": false,
            "inputs": [
                {
                    "indexed": false,
                    "internalType": "uint256",
                    "name": "number",
                    "type": "uint256"
                }
            ],
            "name": "CountedTo",
            "type": "event"
        },
        {
            "inputs": [
                {
                    "internalType": "contract ERC721",
                    "name": "nft",
                    "type": "address"
                },
                {
                    "internalType": "uint256",
                    "name": "tokenId",
                    "type": "uint256"
                }
            ],
            "name": "countUp",
            "outputs": [
                {
                    "internalType": "uint256",
                    "name": "",
                    "type": "uint256"
                }
            ],
            "stateMutability": "nonpayable",
            "type": "function"
        },
        {
            "inputs": [],
            "name": "getCount",
            "outputs": [
                {
                    "internalType": "uint256",
                    "name": "",
                    "type": "uint256"
                }
            ],
            "stateMutability": "view",
            "type": "function"
        }
    ],
    "bytecode": "60806040526000805534801561001457600080fd5b50610341806100246000396000f3fe608060405234801561001057600080fd5b50600436106100365760003560e01c8063a87d942c1461003b578063be670b1c14610051575b600080fd5b6000545b60405190815260200160405180910390f35b61003f61005f366004610238565b6040516331a9108f60e11b8152600481018290526000908390839033906001600160a01b03841690636352211e90602401602060405180830381865afa1580156100ad573d6000803e3d6000fd5b505050506040513d601f19601f820116820180604052508101906100d19190610264565b6001600160a01b0316146100e457600080fd5b6101186040518060400160405280601081526020016f636f756e7455703a20636f756e74203d60801b8152506000546101b6565b60008054610127906001610288565b905060005481116101715760405162461bcd60e51b815260206004820152601060248201526f55696e74323536206f766572666c6f7760801b604482015260640160405180910390fd5b60008190556040518181527fa501f5a8ef1a812bff54fb3642cfaec066c351af1716c48a7bdd05e0bb631e679060200160405180910390a15050600054949350505050565b6101fb82826040516024016101cc9291906102ae565b60408051601f198184030181529190526020810180516001600160e01b03166309710a9d60e41b1790526101ff565b5050565b80516a636f6e736f6c652e6c6f67602083016000808483855afa5050505050565b6001600160a01b038116811461023557600080fd5b50565b6000806040838503121561024b57600080fd5b823561025681610220565b946020939093013593505050565b60006020828403121561027657600080fd5b815161028181610220565b9392505050565b600082198211156102a957634e487b7160e01b600052601160045260246000fd5b500190565b604081526000835180604084015260005b818110156102dc57602081870181015160608684010152016102bf565b818111156102ee576000606083860101525b50602083019390935250601f91909101601f19160160600191905056fea26469706673582212208474dd2a6a41a0692ed54f275061c1952649307d029b089d8310f471ef51cb6d64736f6c634300080d0033",
    "sourcePath": "/Users/matouspistora/Projects/nft-checker/contracts/Counter.sol",
    "compiler": {
        "name": "solc",
        "version": "0.8.13+commit.abaa5c0e"
    },
    "functionHashes": {
        "countUp(address,uint256)": "be670b1c",
        "getCount()": "a87d942c"
    },
    "gasEstimates": {
        "creation": {
            "codeDepositCost": "166600",
            "executionCost": "5220",
            "totalCost": "171820"
        },
        "external": {
            "countUp(address,uint256)": "infinite",
            "getCount()": "2247"
        }
    }
}