{
    "contractName": "MyToken",
    "abi": [
        {
            "inputs": [],
            "stateMutability": "nonpayable",
            "type": "constructor"
        },
        {
            "anonymous": false,
            "inputs": [
                {
                    "indexed": true,
                    "internalType": "address",
                    "name": "owner",
                    "type": "address"
                },
                {
                    "indexed": true,
                    "internalType": "address",
                    "name": "approved",
                    "type": "address"
                },
                {
                    "indexed": true,
                    "internalType": "uint256",
                    "name": "tokenId",
                    "type": "uint256"
                }
            ],
            "name": "Approval",
            "type": "event"
        },
        {
            "anonymous": false,
            "inputs": [
                {
                    "indexed": true,
                    "internalType": "address",
                    "name": "owner",
                    "type": "address"
                },
                {
                    "indexed": true,
                    "internalType": "address",
                    "name": "operator",
                    "type": "address"
                },
                {
                    "indexed": false,
                    "internalType": "bool",
                    "name": "approved",
                    "type": "bool"
                }
            ],
            "name": "ApprovalForAll",
            "type": "event"
        },
        {
            "anonymous": false,
            "inputs": [
                {
                    "indexed": true,
                    "internalType": "address",
                    "name": "previousOwner",
                    "type": "address"
                },
                {
                    "indexed": true,
                    "internalType": "address",
                    "name": "newOwner",
                    "type": "address"
                }
            ],
            "name": "OwnershipTransferred",
            "type": "event"
        },
        {
            "anonymous": false,
            "inputs": [
                {
                    "indexed": true,
                    "internalType": "address",
                    "name": "from",
                    "type": "address"
                },
                {
                    "indexed": true,
                    "internalType": "address",
                    "name": "to",
                    "type": "address"
                },
                {
                    "indexed": true,
                    "internalType": "uint256",
                    "name": "tokenId",
                    "type": "uint256"
                }
            ],
            "name": "Transfer",
            "type": "event"
        },
        {
            "inputs": [
                {
                    "internalType": "address",
                    "name": "to",
                    "type": "address"
                },
                {
                    "internalType": "uint256",
                    "name": "tokenId",
                    "type": "uint256"
                }
            ],
            "name": "approve",
            "outputs": [],
            "stateMutability": "nonpayable",
            "type": "function"
        },
        {
            "inputs": [
                {
                    "internalType": "address",
                    "name": "owner",
                    "type": "address"
                }
            ],
            "name": "balanceOf",
            "outputs": [
                {
                    "internalType": "uint256",
                    "name": "",
                    "type": "uint256"
                }
            ],
            "stateMutability": "view",
            "type": "function"
        },
        {
            "inputs": [
                {
                    "internalType": "uint256",
                    "name": "tokenId",
                    "type": "uint256"
                }
            ],
            "name": "burn",
            "outputs": [],
            "stateMutability": "nonpayable",
            "type": "function"
        },
        {
            "inputs": [
                {
                    "internalType": "uint256",
                    "name": "tokenId",
                    "type": "uint256"
                }
            ],
            "name": "getApproved",
            "outputs": [
                {
                    "internalType": "address",
                    "name": "",
                    "type": "address"
                }
            ],
            "stateMutability": "view",
            "type": "function"
        },
        {
            "inputs": [
                {
                    "internalType": "address",
                    "name": "owner",
                    "type": "address"
                },
                {
                    "internalType": "address",
                    "name": "operator",
                    "type": "address"
                }
            ],
            "name": "isApprovedForAll",
            "outputs": [
                {
                    "internalType": "bool",
                    "name": "",
                    "type": "bool"
                }
            ],
            "stateMutability": "view",
            "type": "function"
        },
        {
            "inputs": [],
            "name": "name",
            "outputs": [
                {
                    "internalType": "string",
                    "name": "",
                    "type": "string"
                }
            ],
            "stateMutability": "view",
            "type": "function"
        },
        {
            "inputs": [],
            "name": "owner",
            "outputs": [
                {
                    "internalType": "address",
                    "name": "",
                    "type": "address"
                }
            ],
            "stateMutability": "view",
            "type": "function"
        },
        {
            "inputs": [
                {
                    "internalType": "uint256",
                    "name": "tokenId",
                    "type": "uint256"
                }
            ],
            "name": "ownerOf",
            "outputs": [
                {
                    "internalType": "address",
                    "name": "",
                    "type": "address"
                }
            ],
            "stateMutability": "view",
            "type": "function"
        },
        {
            "inputs": [],
            "name": "renounceOwnership",
            "outputs": [],
            "stateMutability": "nonpayable",
            "type": "function"
        },
        {
            "inputs": [
                {
                    "internalType": "address",
                    "name": "to",
                    "type": "address"
                }
            ],
            "name": "safeMint",
            "outputs": [
                {
                    "internalType": "uint256",
                    "name": "",
                    "type": "uint256"
                }
            ],
            "stateMutability": "nonpayable",
            "type": "function"
        },
        {
            "inputs": [
                {
                    "internalType": "address",
                    "name": "from",
                    "type": "address"
                },
                {
                    "internalType": "address",
                    "name": "to",
                    "type": "address"
                },
                {
                    "internalType": "uint256",
                    "name": "tokenId",
                    "type": "uint256"
                }
            ],
            "name": "safeTransferFrom",
            "outputs": [],
            "stateMutability": "nonpayable",
            "type": "function"
        },
        {
            "inputs": [
                {
                    "internalType": "address",
                    "name": "from",
                    "type": "address"
                },
                {
                    "internalType": "address",
                    "name": "to",
                    "type": "address"
                },
                {
                    "internalType": "uint256",
                    "name": "tokenId",
                    "type": "uint256"
                },
                {
                    "internalType": "bytes",
                    "name": "_data",
                    "type": "bytes"
                }
            ],
            "name": "safeTransferFrom",
            "outputs": [],
            "stateMutability": "nonpayable",
            "type": "function"
        },
        {
            "inputs": [
                {
                    "internalType": "address",
                    "name": "operator",
                    "type": "address"
                },
                {
                    "internalType": "bool",
                    "name": "approved",
                    "type": "bool"
                }
            ],
            "name": "setApprovalForAll",
            "outputs": [],
            "stateMutability": "nonpayable",
            "type": "function"
        },
        {
            "inputs": [
                {
                    "internalType": "bytes4",
                    "name": "interfaceId",
                    "type": "bytes4"
                }
            ],
            "name": "supportsInterface",
            "outputs": [
                {
                    "internalType": "bool",
                    "name": "",
                    "type": "bool"
                }
            ],
            "stateMutability": "view",
            "type": "function"
        },
        {
            "inputs": [],
            "name": "symbol",
            "outputs": [
                {
                    "internalType": "string",
                    "name": "",
                    "type": "string"
                }
            ],
            "stateMutability": "view",
            "type": "function"
        },
        {
            "inputs": [
                {
                    "internalType": "uint256",
                    "name": "tokenId",
                    "type": "uint256"
                }
            ],
            "name": "tokenURI",
            "outputs": [
                {
                    "internalType": "string",
                    "name": "",
                    "type": "string"
                }
            ],
            "stateMutability": "view",
            "type": "function"
        },
        {
            "inputs": [
                {
                    "internalType": "address",
                    "name": "from",
                    "type": "address"
                },
                {
                    "internalType": "address",
                    "name": "to",
                    "type": "address"
                },
                {
                    "internalType": "uint256",
                    "name": "tokenId",
                    "type": "uint256"
                }
            ],
            "name": "transferFrom",
            "outputs": [],
            "stateMutability": "nonpayable",
            "type": "function"
        },
        {
            "inputs": [
                {
                    "internalType": "address",
                    "name": "newOwner",
                    "type": "address"
                }
            ],
            "name": "transferOwnership",
            "outputs": [],
            "stateMutability": "nonpayable",
            "type": "function"
        }
    ],
    "bytecode": "60806040523480156200001157600080fd5b50604080518082018252600781526626bcaa37b5b2b760c91b6020808301918252835180850190945260038452624d544b60e81b9084015281519192916200005c91600091620000eb565b50805162000072906001906020840190620000eb565b5050506200008f620000896200009560201b60201c565b62000099565b620001cd565b3390565b600680546001600160a01b038381166001600160a01b0319831681179093556040519116919082907f8be0079c531659141344cd1fd0a4f28419497f9722a3daafe3b4186f6b6457e090600090a35050565b828054620000f99062000191565b90600052602060002090601f0160209004810192826200011d576000855562000168565b82601f106200013857805160ff191683800117855562000168565b8280016001018555821562000168579182015b82811115620001685782518255916020019190600101906200014b565b50620001769291506200017a565b5090565b5b808211156200017657600081556001016200017b565b600181811c90821680620001a657607f821691505b602082108103620001c757634e487b7160e01b600052602260045260246000fd5b50919050565b61173280620001dd6000396000f3fe608060405234801561001057600080fd5b50600436106101165760003560e01c806370a08231116100a2578063a22cb46511610071578063a22cb46514610239578063b88d4fde1461024c578063c87b56dd1461025f578063e985e9c514610272578063f2fde38b146102ae57600080fd5b806370a0823114610205578063715018a6146102185780638da5cb5b1461022057806395d89b411461023157600080fd5b806323b872dd116100e957806323b872dd1461019857806340d097c3146101ab57806342842e0e146101cc57806342966c68146101df5780636352211e146101f257600080fd5b806301ffc9a71461011b57806306fdde0314610143578063081812fc14610158578063095ea7b314610183575b600080fd5b61012e610129366004611215565b6102c1565b60405190151581526020015b60405180910390f35b61014b610313565b60405161013a919061128a565b61016b61016636600461129d565b6103a5565b6040516001600160a01b03909116815260200161013a565b6101966101913660046112cd565b61043f565b005b6101966101a63660046112f7565b610554565b6101be6101b9366004611333565b610586565b60405190815260200161013a565b6101966101da3660046112f7565b6105e0565b6101966101ed36600461129d565b6105fb565b61016b61020036600461129d565b610675565b6101be610213366004611333565b6106ec565b610196610773565b6006546001600160a01b031661016b565b61014b6107a9565b61019661024736600461134e565b6107b8565b61019661025a3660046113a0565b6107c7565b61014b61026d36600461129d565b6107ff565b61012e61028036600461147c565b6001600160a01b03918216600090815260056020908152604080832093909416825291909152205460ff1690565b6101966102bc366004611333565b6108e7565b60006001600160e01b031982166380ac58cd60e01b14806102f257506001600160e01b03198216635b5e139f60e01b145b8061030d57506301ffc9a760e01b6001600160e01b03198316145b92915050565b606060008054610322906114af565b80601f016020809104026020016040519081016040528092919081815260200182805461034e906114af565b801561039b5780601f106103705761010080835404028352916020019161039b565b820191906000526020600020905b81548152906001019060200180831161037e57829003601f168201915b5050505050905090565b6000818152600260205260408120546001600160a01b03166104235760405162461bcd60e51b815260206004820152602c60248201527f4552433732313a20617070726f76656420717565727920666f72206e6f6e657860448201526b34b9ba32b73a103a37b5b2b760a11b60648201526084015b60405180910390fd5b506000908152600460205260409020546001600160a01b031690565b600061044a82610675565b9050806001600160a01b0316836001600160a01b0316036104b75760405162461bcd60e51b815260206004820152602160248201527f4552433732313a20617070726f76616c20746f2063757272656e74206f776e656044820152603960f91b606482015260840161041a565b336001600160a01b03821614806104d357506104d38133610280565b6105455760405162461bcd60e51b815260206004820152603860248201527f4552433732313a20617070726f76652063616c6c6572206973206e6f74206f7760448201527f6e6572206e6f7220617070726f76656420666f7220616c6c0000000000000000606482015260840161041a565b61054f838361097f565b505050565b61055f335b826109ed565b61057b5760405162461bcd60e51b815260040161041a906114e9565b61054f838383610ae4565b6006546000906001600160a01b031633146105b35760405162461bcd60e51b815260040161041a9061153a565b60006105be60075490565b90506105ce600780546001019055565b6105d88382610c80565b90505b919050565b61054f838383604051806020016040528060008152506107c7565b61060433610559565b6106695760405162461bcd60e51b815260206004820152603060248201527f4552433732314275726e61626c653a2063616c6c6572206973206e6f74206f7760448201526f1b995c881b9bdc88185c1c1c9bdd995960821b606482015260840161041a565b61067281610c9a565b50565b6000818152600260205260408120546001600160a01b0316806105d85760405162461bcd60e51b815260206004820152602960248201527f4552433732313a206f776e657220717565727920666f72206e6f6e657869737460448201526832b73a103a37b5b2b760b91b606482015260840161041a565b60006001600160a01b0382166107575760405162461bcd60e51b815260206004820152602a60248201527f4552433732313a2062616c616e636520717565727920666f7220746865207a65604482015269726f206164647265737360b01b606482015260840161041a565b506001600160a01b031660009081526003602052604090205490565b6006546001600160a01b0316331461079d5760405162461bcd60e51b815260040161041a9061153a565b6107a76000610d35565b565b606060018054610322906114af565b6107c3338383610d87565b5050565b6107d133836109ed565b6107ed5760405162461bcd60e51b815260040161041a906114e9565b6107f984848484610e55565b50505050565b6000818152600260205260409020546060906001600160a01b031661087e5760405162461bcd60e51b815260206004820152602f60248201527f4552433732314d657461646174613a2055524920717565727920666f72206e6f60448201526e3732bc34b9ba32b73a103a37b5b2b760891b606482015260840161041a565b600061089560408051602081019091526000815290565b905060008151116108b557604051806020016040528060008152506108e0565b806108bf84610e88565b6040516020016108d092919061156f565b6040516020818303038152906040525b9392505050565b6006546001600160a01b031633146109115760405162461bcd60e51b815260040161041a9061153a565b6001600160a01b0381166109765760405162461bcd60e51b815260206004820152602660248201527f4f776e61626c653a206e6577206f776e657220697320746865207a65726f206160448201526564647265737360d01b606482015260840161041a565b61067281610d35565b600081815260046020526040902080546001600160a01b0319166001600160a01b03841690811790915581906109b482610675565b6001600160a01b03167f8c5be1e5ebec7d5bd14f71427d1e84f3dd0314c0f7b2291e5b200ac8c7c3b92560405160405180910390a45050565b6000818152600260205260408120546001600160a01b0316610a665760405162461bcd60e51b815260206004820152602c60248201527f4552433732313a206f70657261746f7220717565727920666f72206e6f6e657860448201526b34b9ba32b73a103a37b5b2b760a11b606482015260840161041a565b6000610a7183610675565b9050806001600160a01b0316846001600160a01b03161480610aac5750836001600160a01b0316610aa1846103a5565b6001600160a01b0316145b80610adc57506001600160a01b0380821660009081526005602090815260408083209388168352929052205460ff165b949350505050565b826001600160a01b0316610af782610675565b6001600160a01b031614610b5b5760405162461bcd60e51b815260206004820152602560248201527f4552433732313a207472616e736665722066726f6d20696e636f72726563742060448201526437bbb732b960d91b606482015260840161041a565b6001600160a01b038216610bbd5760405162461bcd60e51b8152602060048201526024808201527f4552433732313a207472616e7366657220746f20746865207a65726f206164646044820152637265737360e01b606482015260840161041a565b610bc860008261097f565b6001600160a01b0383166000908152600360205260408120805460019290610bf19084906115b4565b90915550506001600160a01b0382166000908152600360205260408120805460019290610c1f9084906115cb565b909155505060008181526002602052604080822080546001600160a01b0319166001600160a01b0386811691821790925591518493918716917fddf252ad1be2c89b69c2b068fc378daa952ba7f163c4a11628f55a4df523b3ef91a4505050565b6107c3828260405180602001604052806000815250610f89565b6000610ca582610675565b9050610cb260008361097f565b6001600160a01b0381166000908152600360205260408120805460019290610cdb9084906115b4565b909155505060008281526002602052604080822080546001600160a01b0319169055518391906001600160a01b038416907fddf252ad1be2c89b69c2b068fc378daa952ba7f163c4a11628f55a4df523b3ef908390a45050565b600680546001600160a01b038381166001600160a01b0319831681179093556040519116919082907f8be0079c531659141344cd1fd0a4f28419497f9722a3daafe3b4186f6b6457e090600090a35050565b816001600160a01b0316836001600160a01b031603610de85760405162461bcd60e51b815260206004820152601960248201527f4552433732313a20617070726f766520746f2063616c6c657200000000000000604482015260640161041a565b6001600160a01b03838116600081815260056020908152604080832094871680845294825291829020805460ff191686151590811790915591519182527f17307eab39ab6107e8899845ad3d59bd9653f200f220920489ca2b5937696c31910160405180910390a3505050565b610e60848484610ae4565b610e6c84848484610fbc565b6107f95760405162461bcd60e51b815260040161041a906115e3565b606081600003610eaf5750506040805180820190915260018152600360fc1b602082015290565b8160005b8115610ed95780610ec381611635565b9150610ed29050600a83611664565b9150610eb3565b60008167ffffffffffffffff811115610ef457610ef461138a565b6040519080825280601f01601f191660200182016040528015610f1e576020820181803683370190505b5090505b8415610adc57610f336001836115b4565b9150610f40600a86611678565b610f4b9060306115cb565b60f81b818381518110610f6057610f6061168c565b60200101906001600160f81b031916908160001a905350610f82600a86611664565b9450610f22565b610f9383836110bd565b610fa06000848484610fbc565b61054f5760405162461bcd60e51b815260040161041a906115e3565b60006001600160a01b0384163b156110b257604051630a85bd0160e11b81526001600160a01b0385169063150b7a02906110009033908990889088906004016116a2565b6020604051808303816000875af192505050801561103b575060408051601f3d908101601f19168201909252611038918101906116df565b60015b611098573d808015611069576040519150601f19603f3d011682016040523d82523d6000602084013e61106e565b606091505b5080516000036110905760405162461bcd60e51b815260040161041a906115e3565b805181602001fd5b6001600160e01b031916630a85bd0160e11b149050610adc565b506001949350505050565b6001600160a01b0382166111135760405162461bcd60e51b815260206004820181905260248201527f4552433732313a206d696e7420746f20746865207a65726f2061646472657373604482015260640161041a565b6000818152600260205260409020546001600160a01b0316156111785760405162461bcd60e51b815260206004820152601c60248201527f4552433732313a20746f6b656e20616c7265616479206d696e74656400000000604482015260640161041a565b6001600160a01b03821660009081526003602052604081208054600192906111a19084906115cb565b909155505060008181526002602052604080822080546001600160a01b0319166001600160a01b03861690811790915590518392907fddf252ad1be2c89b69c2b068fc378daa952ba7f163c4a11628f55a4df523b3ef908290a45050565b6001600160e01b03198116811461067257600080fd5b60006020828403121561122757600080fd5b81356108e0816111ff565b60005b8381101561124d578181015183820152602001611235565b838111156107f95750506000910152565b60008151808452611276816020860160208601611232565b601f01601f19169290920160200192915050565b6020815260006108e0602083018461125e565b6000602082840312156112af57600080fd5b5035919050565b80356001600160a01b03811681146105db57600080fd5b600080604083850312156112e057600080fd5b6112e9836112b6565b946020939093013593505050565b60008060006060848603121561130c57600080fd5b611315846112b6565b9250611323602085016112b6565b9150604084013590509250925092565b60006020828403121561134557600080fd5b6108e0826112b6565b6000806040838503121561136157600080fd5b61136a836112b6565b91506020830135801515811461137f57600080fd5b809150509250929050565b634e487b7160e01b600052604160045260246000fd5b600080600080608085870312156113b657600080fd5b6113bf856112b6565b93506113cd602086016112b6565b925060408501359150606085013567ffffffffffffffff808211156113f157600080fd5b818701915087601f83011261140557600080fd5b8135818111156114175761141761138a565b604051601f8201601f19908116603f0116810190838211818310171561143f5761143f61138a565b816040528281528a602084870101111561145857600080fd5b82602086016020830137600060208483010152809550505050505092959194509250565b6000806040838503121561148f57600080fd5b611498836112b6565b91506114a6602084016112b6565b90509250929050565b600181811c908216806114c357607f821691505b6020821081036114e357634e487b7160e01b600052602260045260246000fd5b50919050565b60208082526031908201527f4552433732313a207472616e736665722063616c6c6572206973206e6f74206f6040820152701ddb995c881b9bdc88185c1c1c9bdd9959607a1b606082015260800190565b6020808252818101527f4f776e61626c653a2063616c6c6572206973206e6f7420746865206f776e6572604082015260600190565b60008351611581818460208801611232565b835190830190611595818360208801611232565b01949350505050565b634e487b7160e01b600052601160045260246000fd5b6000828210156115c6576115c661159e565b500390565b600082198211156115de576115de61159e565b500190565b60208082526032908201527f4552433732313a207472616e7366657220746f206e6f6e20455243373231526560408201527131b2b4bb32b91034b6b83632b6b2b73a32b960711b606082015260800190565b6000600182016116475761164761159e565b5060010190565b634e487b7160e01b600052601260045260246000fd5b6000826116735761167361164e565b500490565b6000826116875761168761164e565b500690565b634e487b7160e01b600052603260045260246000fd5b6001600160a01b03858116825284166020820152604081018390526080606082018190526000906116d59083018461125e565b9695505050505050565b6000602082840312156116f157600080fd5b81516108e0816111ff56fea2646970667358221220a80a9a7f9ac0c1396b83920bb1b1f53a5a38042f5faf890aa360e34153a37c9964736f6c634300080d0033",
    "sourcePath": "/Users/matouspistora/Projects/nft-checker/contracts/MyToken.sol",
    "compiler": {
        "name": "solc",
        "version": "0.8.13+commit.abaa5c0e"
    },
    "functionHashes": {
        "approve(address,uint256)": "095ea7b3",
        "balanceOf(address)": "70a08231",
        "burn(uint256)": "42966c68",
        "getApproved(uint256)": "081812fc",
        "isApprovedForAll(address,address)": "e985e9c5",
        "name()": "06fdde03",
        "owner()": "8da5cb5b",
        "ownerOf(uint256)": "6352211e",
        "renounceOwnership()": "715018a6",
        "safeMint(address)": "40d097c3",
        "safeTransferFrom(address,address,uint256)": "42842e0e",
        "safeTransferFrom(address,address,uint256,bytes)": "b88d4fde",
        "setApprovalForAll(address,bool)": "a22cb465",
        "supportsInterface(bytes4)": "01ffc9a7",
        "symbol()": "95d89b41",
        "tokenURI(uint256)": "c87b56dd",
        "transferFrom(address,address,uint256)": "23b872dd",
        "transferOwnership(address)": "f2fde38b"
    },
    "gasEstimates": {
        "creation": {
            "codeDepositCost": "1187600",
            "executionCost": "infinite",
            "totalCost": "infinite"
        },
        "external": {
            "approve(address,uint256)": "infinite",
            "balanceOf(address)": "2612",
            "burn(uint256)": "infinite",
            "getApproved(uint256)": "4760",
            "isApprovedForAll(address,address)": "infinite",
            "name()": "infinite",
            "owner()": "2398",
            "ownerOf(uint256)": "2667",
            "renounceOwnership()": "28162",
            "safeMint(address)": "infinite",
            "safeTransferFrom(address,address,uint256)": "infinite",
            "safeTransferFrom(address,address,uint256,bytes)": "infinite",
            "setApprovalForAll(address,bool)": "26705",
            "supportsInterface(bytes4)": "534",
            "symbol()": "infinite",
            "tokenURI(uint256)": "infinite",
            "transferFrom(address,address,uint256)": "infinite",
            "transferOwnership(address)": "28422"
        }
    }
}